S01800004D792046697273742050726F6A6563742E7372656327
S11300000C942A000C9445010C943C000C943C0084
S11300100C943C000C943C000C943C000C943C006C
S11300200C943C000C943C000C943C000C943C005C
S11300300C943C000C943C000C943C000C943C004C
S11300400C943C000C943C000C943C000C943C003C
S11300500C943C0011241FBECFE5D8E0DEBFCDBF19
S113006020E0A0E6B0E001C01D92A336B207E1F79C
S11300700E9484010C94B6020C94000062E084E4B3
S11300800E94710160E082E40E94750161E082E4F3
S11300900E94750162E082E40E94750160E081E4DF
S11300A00E94750161E081E40E94750162E081E4CF
S11300B00E947501789485B7836085BF8BB780648F
S11300C08BBF13BE12BE08950F931F93CF93DF937C
S11300D083B7846083BF80916200813031F08330C4
S11300E041F001E0C0EBD4E007C007E0CBEAD0E088
S11300F003C007E0CBEAD0E010E01FC080916100AC
S1130100882319F0109261001CC008B600FEF6CFD7
S113011088B7816088BF2F5F3F4F02C020E030E086
S11301202C173D0790F312BE61E082E40E94810126
S113013061E081E40E9481011F5F101778F310923F
S11301406000DF91CF911F910F910895809162001B
S1130150813059F138F0823009F44AC0833009F40F
S11301606AC08BC060E082E40E94790161E082E4AD
S11301700E947D0162E082E40E947D0160E081E4EE
S11301800E947D0161E081E40E947D0162E081E4DE
S11301900E9479018091620090E00E946400809145
S11301A062008F5F8093620068C060E082E40E9416
S11301B07D0161E082E40E94790162E082E40E94B0
S11301C07D0160E081E40E947D0161E081E40E94A0
S11301D0790162E081E40E947D018091620090E0F7
S11301E00E946400809162008F5F8093620045C02A
S11301F060E082E40E947D0161E082E40E947D016E
S113020062E082E40E94790160E081E40E94790165
S113021061E081E40E947D0162E081E40E947D014D
S11302208091620090E00E946400809162008F5F80
S11302308093620022C060E082E40E947D0161E05C
S113024082E40E94790162E082E40E947D0160E020
S113025081E40E947D0161E081E40E94790162E011
S113026081E40E947D018091620090E00E9464001C
S1130270809162008F5F809362008091620084307D
S113028009F064CF1092620061CF1F920F920FB6F3
S11302900F9211248F938091600081111CC081E022
S11302A08093600080916200813051F018F08330B7
S11302B069F011C01092620081E0809361000BC06C
S11302C01092620081E08093610005C01092620088
S11302D081E0809361008F910F900FBE0F901F906B
S11302E0189540E00E948B01089541E00E948B0123
S11302F0089541E00E940502089540E00E9405022D
S113030008950E947F0208950E943E000E94A60064
S113031080E090E00895823431F118F4813439F0AA
S113032008958334E1F1843409F454C008954111EB
S11303300CC02AB381E090E002C0880F991F6A952F
S1130340E2F7809582238ABB0895413009F05CC0AE
S11303502AB381E090E002C0880F991F6A95E2F702
S1130360822B8ABB089541110CC027B381E090E031
S113037002C0880F991F6A95E2F78095822387BB94
S11303800895413009F040C027B381E090E002C0F5
S1130390880F991F6A95E2F7822B87BB0895411154
S11303A00CC024B381E090E002C0880F991F6A95C5
S11303B0E2F78095822384BB0895413029F524B364
S11303C081E090E002C0880F991F6A95E2F7822BC2
S11303D084BB089541110CC021B381E090E002C0B8
S11303E0880F991F6A95E2F78095822381BB08954F
S11303F0413051F421B381E090E002C0880F991F8D
S11304006A95E2F7822B81BB0895823431F118F4A6
S1130410813439F008958334E1F1843409F454C00B
S1130420089541110CC02BB381E090E002C0880F05
S1130430991F6A95E2F7809582238BBB089541301A
S113044009F05CC02BB381E090E002C0880F991FD3
S11304506A95E2F7822B8BBB089541110CC028B337
S113046081E090E002C0880F991F6A95E2F78095B9
S1130470822388BB0895413009F040C028B381E04D
S113048090E002C0880F991F6A95E2F7822B88BB1F
S1130490089541110CC025B381E090E002C0880F9B
S11304A0991F6A95E2F78095822385BB08954130B0
S11304B029F525B381E090E002C0880F991F6A9561
S11304C0E2F7822B85BB089541110CC022B381E071
S11304D090E002C0880F991F6A95E2F78095822305
S11304E082BB0895413051F422B381E090E002C010
S11304F0880F991F6A95E2F7822B82BB0895823494
S1130500A1F018F4813431F008958334C9F08434AF
S113051011F108952BB381E090E002C0880F991F78
S11305206A95E2F782278BBB089528B381E090E0B7
S113053002C0880F991F6A95E2F7822788BB089545
S113054025B381E090E002C0880F991F6A95E2F715
S1130550822785BB089522B381E090E002C0880F12
S1130560991F6A95E2F7822782BB0895F894FFCF1A
S9030000FC
